:020000040800F2
:1000000000500020EF000008ED000008ED0000089F
:10001000ED000008ED000008ED0000080000000001
:10002000000000000000000000000000ED000008DB
:10003000ED00000800000000ED000008ED000008E1
:10004000ED000008ED000008ED000008ED000008DC
:10005000ED000008ED000008ED000008ED000008CC
:10006000ED000008ED000008ED000008ED000008BC
:10007000ED000008ED000008ED000008ED000008AC
:10008000ED000008ED000008ED000008ED0000089C
:10009000ED000008ED000008ED000008ED0000088C
:1000A000ED000008ED000008ED000008ED0000087C
:1000B000ED000008ED000008ED000008ED0000086C
:1000C000ED000008ED000008ED000008ED0000085C
:1000D000ED000008ED000008ED000008ED0000084C
:0C00E000ED000008ED000008ED00000835
:1000EC00FEE70B480B490C4A884204DA136803609C
:1000FC0004300432F8E7094809494FF000028842FD
:10010C0002DA02600430FAE700F06AF8FEE7000059
:10011C000000002000000020380200080000002031
:10012C00000000201B4A136843F480331360194B02
:10013C001B6813F4003FFAD0174B12221A60A3F578
:10014C0080534FF480625A605A6842F480325A608D
:10015C005A6822F400325A605A6842F4E0125A602B
:10016C001A6842F080721A600A4B1B6813F0007F09
:10017C00FAD0084B5A6822F003025A605A6842F0CF
:10018C0002025A60034B5B6803F00C03082BF9D195
:10019C00704700BF001002400020024000EBC0007E
:1001AC00C00001384FF0E023586100229A6105220B
:1001BC001A614FF0E0231B6913F4803FF9D04FF024
:1001CC00E02300221A61704710B504E04FF47A70F6
:1001DC00FFF7E4FF2046441E0028F7D110BD0000B5
:1001EC0010B5FFF79FFF0F4A936943F0100393611B
:1001FC000D4B5A6822F470025A605A6842F400128D
:10020C005A60094C4FF0005323614FF4FA70FFF71A
:10021C00DBFF4FF4005323614FF4FA70FFF7D4FF68
:0C022C00EFE700BF00100240001001408E
:04000005080000EF00
:00000001FF
