:020000040800F2
:1000000000500020EF000008ED000008ED0000089F
:10001000ED000008ED000008ED0000080000000001
:10002000000000000000000000000000ED000008DB
:10003000ED00000800000000ED000008ED000008E1
:10004000ED000008ED000008ED000008ED000008DC
:10005000ED000008ED000008ED000008ED000008CC
:10006000ED000008ED000008ED000008ED000008BC
:10007000ED000008ED000008ED000008ED000008AC
:10008000ED000008ED000008ED000008ED0000089C
:10009000ED000008ED000008ED000008ED0000088C
:1000A000ED000008ED000008ED000008ED0000087C
:1000B000ED000008ED000008ED000008ED0000086C
:1000C000ED000008ED000008ED000008ED0000085C
:1000D000ED000008ED000008ED000008ED0000084C
:0C00E000ED000008ED000008ED00000835
:1000EC00FEE70B480B490C4A884204DA136803609C
:1000FC0004300432F8E7094809494FF000028842FD
:10010C0002DA02600430FAE700F016F8FEE70000AD
:10011C0000000020000000208001000800000020EA
:10012C000000002082B00190019B5A1E0192002B0E
:10013C00FAD102B07047000008B50B4A936943F03E
:10014C0010039361094B5A6822F470025A605A6882
:10015C0042F400125A60054B4FF000521A610448E9
:10016C00FFF7E0FFF7E700BF00100240001001406E
:04017C0020A10700B7
:04000005080000EF00
:00000001FF
