:020000040800F2
:1000000000500020611C0008010F0008030F0008C9
:10001000050F0008070F0008090F00080000000086
:100020000000000000000000000000000B0F0008AE
:100030000D0F0008000000000F0F0008110F00084E
:10004000A91C0008A91C0008A91C0008A91C00087C
:10005000A91C0008A91C0008A91C0008A91C00086C
:10006000A91C0008A91C0008A91C0008A91C00085C
:10007000A91C0008A91C0008A91C0008A91C00084C
:10008000A91C0008A91C0008A91C0008A91C00083C
:10009000A91C0008A91C0008A91C0008A91C00082C
:1000A000A91C0008A91C0008A91C0008A91C00081C
:1000B000A91C0008A91C0008A91C0008A91C00080C
:1000C000A91C0008A91C0008A91C0008A91C0008FC
:1000D000A91C0008A91C0008A91C0008A91C0008EC
:1000E000A91C0008A91C0008A91C000800000000A9
:1000F0000000000000000000000000000000000000
:0C01000000000000000000005FF808F1A3
:10010C000348044B834202D0034B03B1184770479A
:10011C006800002068000020000000000548064B25
:10012C001B1AD90F01EBA301491002D0034B03B1E9
:10013C00184770476800002068000020000000008D
:10014C0010B5064C237843B9FFF7DAFF044B13B113
:10015C000448AFF300800123237010BD6800002019
:10016C0000000000AC1C000808B5044B1BB104498E
:10017C000448AFF30080BDE80840CFE70000000062
:10018C006C000020AC1C000870B50F4B0F4DAB423F
:10019C00A3EB050607D00024B61055F8043B013438
:1001AC009847A642F9D801F07BFD094D094B5E1B1F
:1001BC00AB424FEAA60606D0002455F8043B0134A6
:1001CC009847A642F9D870BD041D0008041D00080C
:1001DC00041D0008081D0008036A70B506460D468C
:1001EC008468002B38D0A3891B0714D5236993B1DD
:1001FC00013DA36815F8011F013BA360D9B1002B89
:10020C0004DAA2699A420FDC0A290DD023685A1C21
:10021C0022601970EDE72146304600F083FB002880
:10022C00E6D04FF0FF3070BD2246304600F07AFC2D
:10023C000130DED1F5E7002B08DA22460A213046E0
:10024C0000F070FC0130ECD00A2070BD0A2223684B
:10025C00591C21601A70F7E700F0F4F8C3E700BFEF
:10026C00024B01461868FFF7B7BF00BF0C00002017
:10027C0000207047024A0349034800F031BB00BF1D
:10028C000000002055060008100000200C4B4168AF
:10029C0010B59942044601D000F0D6F9A168094B7B
:1002AC00994202D0204600F0CFF9E168064B994202
:1002BC0004D02046BDE8104000F0C6B910BD00BF08
:1002CC0084000020EC000020540100200020704726
:1002DC002DE9F84300250423294C2A490822C4F8A7
:1002EC00381104F15C002946DFF89C90DFF89C8003
:1002FC00274F284EC4E90335C4E90055C4E9055518
:10030C00A560656600F0C6F8234B0822294604F167
:10031C00C4006367C4E90849C4E90A87C4E91A55EB
:10032C00C4E91E5526632567C4F8CC50C4F8805028
:10033C0000F0B0F8194B2946C4F8DC30082204F15F
:10034C00680304F59670C4F88830C4E92398C4E9AE
:10035C002576C4E93455C4E93855C4F8D850C4F8E6
:10036C003451C4F8E85000F095F804F1D003C4E916
:10037C003D98C4E93F76C4F8F030BDE8F88300BF7F
:10038C008400002081020008F10B0008190C000801
:10039C00590C00087D0C0008090001001200020035
:1003AC00F8B5254B0646D3F83831002B3CD0234FFB
:1003BC00D7E90134013B04D51DE05A1C04F1680453
:1003CC0019D0B4F90C50013B002DF6D11C4B08226E
:1003DC002946C4E90155C4E90455E3606566256006
:1003EC00A56104F15C0000F055F8C4E90D55C4E9B1
:1003FC0012552046F8BD3D680DB12F46D8E74FF495
:10040C00D671304600F08EF9044680B104230560A5
:10041C00294625460C304FF4D072A060636000F082
:10042C0039F83C602F46C3E7FFF752FFBFE70C23B8
:10043C0038603360DDE700BF84000020000000203E
:10044C000100FFFF036A03B17047044B044AD3F861
:10045C0038310262002BF7D13AE700BF840000204C
:10046C0099020008704700BF704700BF0020024A85
:10047C00024900F035BA00BF000000207D020008E0
:10048C000020024A024900F02BBA00BF00000020F5
:10049C00D902000870B5860747D0541E002A3ED0FA
:1004AC000346CAB201E0013C39D303F8012B9D0786
:1004BC00F9D1032C2CD9CDB205EB05250F2C1A46FE
:1004CC0005EB054534D9A4F1100C2CF00F0603F103
:1004DC00100EB6444FEA1C1CC2E90055C2E9025585
:1004EC0010327245F8D10CF1010214F00C0F03EB31
:1004FC00021204F00F0C13D0ACF1040323F003032D
:10050C000433134442F8045B9342FBD10CF0030414
:10051C002CB1C9B21C4403F8011BA342FBD170BD22
:10052C0064461346002CF4D1F9E703461446C0E7A1
:10053C00A446E1E7F8B5B1F90C300C461E070746A6
:10054C0039D44A68002A53DDE56A002D31D00022E7
:10055C003E683A6013F48052216A55D10123384623
:10056C00A847451C024663D0B4F90C30E56A216AF1
:10057C00580705D56368D21A636B0BB1236CD21A7A
:10058C0000233846A847421C40D0002223696260F1
:10059C002360A389DB0400D56065616B3E6041B1CB
:1005AC0004F14403994202D0384600F03BF9002391
:1005BC0063630020F8BD0E69002EFAD09B0718BFAC
:1005CC0000230D6808BF4B690E60AD1B8B600CE0FF
:1005DC002B463246D4F828C03846216AE047B0F1A1
:1005EC00000CA5EB0C05664406DD002DF0DCE0E705
:1005FC000A6C002AA8DCDCE7B4F90C3043F04003A9
:10060C004FF0FF30A381F8BD626DB1E73968B4F9E2
:10061C000C301D29F2D80B4ACA40D507EED5002262
:10062C00626022692260DA04B7D50029B4D0B4E73D
:10063C003B68002B98D01D2B01D0162BDCD13E60D3
:10064C00B7E700BF010040200B69B3B110B50446F9
:10065C0082B008B1036A5BB1B1F90C3013B9002058
:10066C0002B010BD204602B0BDE81040FFF762BFDB
:10067C000191FFF7E7FE0199EEE70020704700BFFC
:10068C00B8B138B50D4A0369044615682BB10DB1E4
:10069C002B6A53B1B4F90C300BB9002038BD21468C
:1006AC002846BDE83840FFF745BF2846FFF7CAFE8D
:1006BC00F0E7034A0349044800F012B90C0000208B
:1006CC00000000205506000810000020014B18689F
:1006DC00704700BF0C00002070B5114E0546336802
:1006EC000C46BBB12146284600F06AFA431C014671
:1006FC000CD0C41C24F00304A04205D02846611A77
:10070C0000F05EFA013001D0204670BD4FF0FF348E
:10071C00204670BD194600F053FA3060E2E700BF86
:10072C00C00100202DE9F843CD1C25F00305083548
:10073C000C2D38BF0C25002D064618DBA94216D807
:10074C00DFF8DC8000F050F9D8F80420A2B1144690
:10075C0003E0636822467BB11C4623685B1BF8D41C
:10076C000B2B1FD89442636854D053600CE00C23BD
:10077C0033600020BDE8F88329463046FFF7ACFF14
:10078C00431C044619D00560304600F02FF904F1E3
:10079C000B00231D20F00700C21A1CBF1B1AA3500C
:1007AC00BDE8F88361199442256014BF5160C8F804
:1007BC000410635163684B60E6E7D8F804701FB30C
:1007CC003C467F68002FFBD123683946304604EB4A
:1007DC00030900F0F5F9814516D123683046ED1A6E
:1007EC002946FFF779FF01300ED02368D8F8042092
:1007FC002B442360536883B1A34203D01A465B6831
:10080C009C42FBD10023B0E70C233046336000F050
:10081C00EDF8AEE7C8F80430B6E7C8F80470B3E7F3
:10082C00C0010020002950D038B551F8043C0C1FF1
:10083C00002BB8BFE418054600F0D6F8274A136819
:10084C002BB1A3420CD92168601883422CD02846C6
:10085C0063601460BDE8384000F0C8B8A3420FD8FC
:10086C001A465B68002BF9D111685018844217D0D6
:10087C002CD3636054602846BDE8384000F0B6B80D
:10088C0011685018A04214D020D8216860188342F7
:10089C00EFD118685B680844C4E900035460EAE7C8
:1008AC0023680B441360E6E718685B680844206013
:1008BC00CDE720680144501883421160DBD1D3E9A5
:1008CC0000040144C2E90014D5E770470C23284604
:1008DC002B60BDE8384000F089B800BFC40100208F
:1008EC002DE9F8434FF0000980460F461646D6E92D
:1008FC000154013D10D4A389012B08D9B4F90E3051
:10090C00013304D021464046B84749EA0009013D6D
:10091C006B1C04F16804EED13668002EE7D1484612
:10092C00BDE8F88338B52F4B05461B680C4613B150
:10093C001A6A002A4BD0B4F90C3018071CD522695E
:10094C0022B313F0010107D000206169A060494275
:10095C00A1613AB1002038BD980758BF6169A16008
:10096C00002AF7D1190658BF1046F4D543F04003BE
:10097C00A3814FF0FF3038BDD9062CD55A0712D4BD
:10098C00226943F00803A381002ADAD103F4207111
:10099C00B1F5007FD5D02146284600F029F8B4F9EE
:1009AC000C302269CDE7616B51B104F144029142E4
:1009BC0004D02846FFF736FFB4F90C3000226263EE
:1009CC000021226923F02403C4E90021D9E7184649
:1009DC00FFF738FDAFE7092243F040032A60A381FB
:1009EC00C7E700BF0C000020704700BF704700BF76
:1009FC0070B5B1F90C300C46990796B007D50122A9
:100A0C0004F14703C4E90432236016B070BDB4F995
:100A1C000E100546002929DB6A4600F055F900281E
:100A2C0022DB4FF480612846019EFFF77BFE88B3E2
:100A3C00A38906F4704643F08003A3814FF48063CE
:100A4C00B6F5005FC4E904032060DED12846B4F992
:100A5C000E1000F055F80028D7D0A38923F003031B
:100A6C0043F00103A381D0E7B4F90C3013F0800FED
:100A7C0014BF40264FF4806628463146FFF752FEDD
:100A8C0040B1A389C4E9040643F080032060A3812C
:100A9C0016B070BDB4F90C309A05B6D4012123F010
:100AAC00030304F1470243F00203C4E90421A381C8
:100ABC002260AAE770B50C46B1F90E101546002954
:100ACC001E4696B00FDB6A4600F0FEF800280ADBE3
:100ADC00019B4FF4806203F47043A3F50053B3FA07
:100AEC0083F35B0907E0A289002312F0800F14BF87
:100AFC0040224FF48062002033602A6016B070BD33
:100B0C00002238B5064D044608462A6001F09EF8CE
:100B1C00431C00D038BD2B68002BFBD0236038BDA4
:100B2C00C8010020F8B506460D46144610B1036AFC
:100B3C00002B37D0A269A389A2601A0719D52369A3
:100B4C00BBB122686169D31AEDB299422F4620DD00
:100B5C000133A1680139A160511C216015706269D3
:100B6C009A420DD0A389DB0701D50A2D08D038464F
:100B7C00F8BD21463046FFF7D5FE38B92369E0E7CA
:100B8C0021463046FFF760FD0028F0D04FF0FF37CC
:100B9C00EDE721463046FFF757FD0028F6D101233B
:100BAC002268D6E7FFF74EFCC4E700BF03460A46AF
:100BBC00024908681946FFF7B5BF00BF0C000020BA
:100BCC00002238B5064D044608462A6000F0F4FFB2
:100BDC00431C00D038BD2B68002BFBD0236038BDE4
:100BEC00C801002010B50C46B1F90E1000F056F8F3
:100BFC00002803DB636D0344636510BDA38923F4F4
:100C0C008053A38110BD00BF002070472DE9F04137
:100C1C000C46B1F90C101F46CB05054616460BD4F5
:100C2C0021F48051A1813B4632462846B4F90E107E
:100C3C00BDE8F04100F072B8B4F90E1002230022A6
:100C4C0000F056F8B4F90C10EAE700BF10B50C46EA
:100C5C00B1F90E1000F04CF8B4F90C30421C0EBF78
:100C6C0023F4805343F480536065A38110BD00BF0F
:100C7C00B1F90E1000F000B8002238B5064D04464C
:100C8C0008462A6000F0DAFF431C00D038BD2B6800
:100C9C00002BFBD0236038BDC801002038B50C46B2
:100CAC00114600228446074D20462A601A466446A7
:100CBC0000F0A6FF431C00D038BD2B68002BFBD0E6
:100CCC00236038BDC801002070B50026074D0446CE
:100CDC00084611462E6000F0B4FF431C00D070BDD6
:100CEC002B68002BFBD0236070BD00BFC801002017
:100CFC0038B50C46114600228446074D20462A6022
:100D0C001A46644600F0A4FF431C00D038BD2B6883
:100D1C00002BFBD0236038BDC801002038B50C4631
:100D2C00114600228446074D20462A601A46644626
:100D3C0000F076FF431C00D038BD2B68002BFBD095
:100D4C00236038BDC801002000B583B001904FF07E
:100D5C00FF33012201A9034800F0C7FE019803B03C
:100D6C005DF804FBCC01002010B586B00023029383
:100D7C000393049305930268174B9A4201D006B073
:100D8C0010BD03F558439A6942F480429A619A69FE
:100D9C0002F480420092009A9A6942F004029A612D
:100DAC009B6903F004030193019B4FF400730293BE
:100DBC000223039303230593084C02A9204600F059
:100DCC002BFC4FF48063029300230393049302A93A
:100DDC00204600F021FCD2E7003801400008014019
:100DEC0072B6FEE700B591B02822002106A8FFF7E5
:100DFC0051FB002301930293039304930593012267
:100E0C0006924FF4803307930A9202220D920E93AE
:100E1C004FF4E0130F9306A800F0F0F880B90F23FD
:100E2C00019302210291002303934FF480620492F8
:100E3C00059301A800F014FB20B911B05DF804FB78
:100E4C00FFF7CEFFFFF7CCFF08B500F09DF8FFF7DA
:100E5C00C9FF00F01BF80A480A4B03604FF4E1335A
:100E6C00436000238360C36003610C224261836191
:100E7C00C36100F00AFE0448FFF7F2F9FBE700BF7C
:100E8C00CC01002000380140C41C000830B587B0EC
:100E9C0000240294039404940594144B9A6942F030
:100EAC0010029A619A6902F010020092009A9A69F3
:100EBC0042F020029A619B6903F020030193019B8D
:100ECC000B4D22464FF40051284600F0B3FC4FF472
:100EDC00005302930123039304940223059302A964
:100EEC00284600F099FB07B030BD00BF001002404F
:100EFC0000100140FEE7FEE7FEE7FEE7FEE7704765
:100F0C007047704708B500F051F808BD82B00A4B25
:100F1C009A6942F001029A619A6902F00102009208
:100F2C00009ADA6942F08052DA61DB6903F080538F
:100F3C000193019B02B070470010024010B50446AB
:100F4C000E4B1A784FF47A73B3FBF2F30C4A106819
:100F5C00B0FBF3F000F0CAFC68B90F2C01D90120EA
:100F6C000AE0002221464FF0FF3000F0AFFC054BA9
:100F7C001C60002000E0012010BD00BF5C000020C0
:100F8C00640000206000002008B5074A136843F095
:100F9C0010031360032000F087FC0F20FFF7CEFF37
:100FAC00FFF7B4FF002008BD00200240034A11687F
:100FBC00034B1B780B441360704700BF14020020D6
:100FCC005C000020014B1868704700BF1402002021
:100FDC0082B0084B1B68084AA2FB03235B0A00FB88
:100FEC0003F3019300BF019B5A1E0192002BF9D110
:100FFC0002B0704764000020D34D6210002800F04E
:10100C00F18170B582B00446036813F0010F2CD047
:10101C00994B5B6803F00C03042B1DD0964B5B685B
:10102C0003F00C03082B12D06368B3F5803F41D05A
:10103C00002B55D103F1804303F504331A6822F4D5
:10104C0080321A601A6822F480221A6037E08A4BC8
:10105C005B6813F4803FE7D0874B1B6813F4003FA9
:10106C0003D06368002B00F0BF81236813F0020FDC
:10107C0075D0814B5B6813F00C0F5FD07E4B5B68B7
:10108C0003F00C03082B54D02369002B00F08A804A
:10109C007A4B01221A60FFF795FF0546764B1B68C9
:1010AC0013F0020F75D1FFF78DFF401B0228F5D905
:1010BC0003209EE1704A136843F480331360636825
:1010CC0043B3FFF77FFF05466B4B1B6813F4003FE0
:1010DC00CBD1FFF777FF401B6428F5D9032088E1BB
:1010EC00B3F5A02F09D0644B1A6822F480321A6031
:1010FC001A6822F480221A60E1E703F18043A3F519
:10110C003C331A6842F480221A601A6842F4803226
:10111C001A60D4E7FFF756FF0546574B1B6813F4CC
:10112C00003FA2D0FFF74EFF401B6428F5D90320E7
:10113C005FE1514B5B6813F4803FA5D14E4B1B68AC
:10114C0013F0020F03D02369012B40F04F814A4A60
:10115C00136823F0F803616943EAC1031360236841
:10116C0013F0080F33D0A369002B5CD0434B012242
:10117C00C3F88024FFF726FF05463F4B5B6A13F04C
:10118C00020F21D1FFF71EFF401B0228F5D90320C7
:10119C002FE1394A136823F0F803616943EAC1036C
:1011AC001360DCE7354B00221A60FFF70BFF054696
:1011BC00314B1B6813F0020FD1D0FFF703FF401B1C
:1011CC000228F5D9032014E10120FFF701FF236861
:1011DC0013F0040F00F09680274BDB6913F0805F4F
:1011EC0034D1254BDA6942F08052DA61DB6903F0C5
:1011FC0080530193019B0125214B1B6813F4807FC5
:10120C0026D0E368012B3DD0002B53D103F1804352
:10121C0003F504331A6A22F001021A621A6A22F0E8
:10122C0004021A6233E0154B0022C3F88024FFF746
:10123C00C9FE0546104B5B6A13F0020FC7D0FFF7CF
:10124C00C1FE401B0228F5D90320D2E00025D3E7CC
:10125C000B4A136843F480731360FFF7B3FE064622
:10126C00074B1B6813F4807FCBD1FFF7ABFE801BC1
:10127C006428F5D90320BCE0001002400000424273
:10128C00007000405F4A136A43F001031362E36885
:10129C0033B3FFF797FE06465A4B1B6A13F0020F47
:1012AC002FD1FFF78FFE801B41F288339842F3D980
:1012BC0003209EE0052B09D0524B1A6A22F0010242
:1012CC001A621A6A22F004021A62E0E74D4B1A6A9B
:1012DC0042F004021A621A6A42F001021A62D6E75C
:1012EC00FFF770FE0646474B1B6A13F0020F08D03F
:1012FC00FFF768FE801B41F288339842F3D9032034
:10130C0077E0E5B9E369002B72D03E4A526802F0EF
:10131C000C02082A56D0022B17D03B4B00221A661F
:10132C00FFF750FE0446374B1B6813F0007F47D085
:10133C00FFF748FE001B0228F5D9032059E0314A7B
:10134C00D36923F08053D361DCE72F4B00221A665C
:10135C00FFF738FE05462B4B1B6813F0007F06D0B9
:10136C00FFF730FE401B0228F5D9032041E0236A29
:10137C00B3F5803F1AD023494B6823F47413226AC7
:10138C00606A024313434B601F4B01221A66FFF73E
:10139C0019FE04461B4B1B6813F0007F0ED1FFF7A0
:1013AC0011FE001B0228F5D9032022E0154A5368D0
:1013BC0023F40033A1680B435360DCE7002018E0F2
:1013CC00002016E0012B16D00E4B5B6803F4803125
:1013DC00226A914211D103F47013626A93420ED1C6
:1013EC00002006E001207047012002E0012000E00F
:1013FC00002002B070BD0120FBE70120F9E70120BD
:10140C00F7E700BF00100240000042420F4B5B6840
:10141C0003F00C02082A01D00D487047C3F3834235
:10142C000C49885C13F4803F0BD0084B5B68C3F30A
:10143C004043094AD35C064A02FB00F0B0FBF3F0D0
:10144C007047064B03FB00F0704700BF00100240D2
:10145C0000127A00DC1C0008D81C000800093D00B2
:10146C00002800F0A08070B50D460446524B1B6856
:10147C0003F007038B420BD24F4A136823F0070388
:10148C000B431360136803F007038B4240F08D800D
:10149C00236813F0020F17D013F0040F04D0474A3F
:1014AC00536843F4E0635360236813F0080F04D0CF
:1014BC00424A536843F460535360404A536823F0E4
:1014CC00F003A1680B435360236813F0010F31D074
:1014DC006368012B20D0022B25D0384A126812F0F9
:1014EC00020F64D035494A6822F0030213434B6063
:1014FC00FFF768FD0646314B5B6803F00C0362682E
:10150C00B3EB820F16D0FFF75DFD801B41F28833E1
:10151C009842F0D9032045E0284A126812F4003FA3
:10152C00E0D101203EE0254A126812F0007FD9D1AB
:10153C00012037E0204B1B6803F00703AB420AD9AC
:10154C001D4A136823F007032B431360136803F041
:10155C000703AB422DD1236813F0040F06D0174AB2
:10156C00536823F4E063E1680B435360236813F082
:10157C00080F07D0114A536823F46053216943EADA
:10158C00C1035360FFF742FF0C4B5B68C3F30313BB
:10159C000B4AD35CD8400B4B18600B4B1868FFF709
:1015AC00CDFC002070BD012070470120FAE701201E
:1015BC00F8E70120F6E700BF0020024000100240CF
:1015CC00F41C00086400002060000020014B186827
:1015DC00704700BF6400002008B5FFF7F7FF044B0D
:1015EC005B68C3F30223034AD35CD84008BD00BF39
:1015FC0000100240EC1C000808B5FFF7E7FF044B95
:10160C005B68C3F3C223034AD35CD84008BD00BF58
:10161C0000100240EC1C000870B582B00024A446F7
:10162C00A1E07E4DAB4214D00CD8A5F58015AB4291
:10163C000FD005F57025AB420BD0A5F58015AB424C
:10164C0010D106E0764DAB4203D005F58035AB42A8
:10165C0008D18B68002B50D0012B49D04261082453
:10166C0000E0CC68BEF1FF0F49D806464FEA8C0269
:10167C0033680F25954023EA050304FA02F213435D
:10168C0033604B6813F0805F6BD0664B9A6942F005
:10169C0001029A619B6903F001030193019B4FEADC
:1016AC009C02951C604B53F825600CF00305AD00B3
:1016BC000F23AB4026EA03065C4B984226D003F579
:1016CC008063984200F08C8003F58063984200F0B0
:1016DC00898003F58063984216D0042317E0CC6808
:1016EC000434BFE7CC680834BCE7CC680C34B9E7E9
:1016FC0002610824B6E70024B4E70424B2E7061D0F
:10170C00ACF108029200B3E7032300E00023AB40E6
:10171C0033430232444D45F822304B6813F4801F9A
:10172C0062D0434A936843EA0E0393604B6813F408
:10173C00001F5FD03E4AD36843EA0E03D3604B6868
:10174C0013F4003F5CD03A4A536843EA0E035360EB
:10175C004B6813F4803F59D0354A136843EA0E03A3
:10176C0013600CF1010C0B6833FA0CF254D001220B
:10177C0002FA0CF203EA020E32EA0303F1D14B68CF
:10178C00122B3FF64EAF122B3FF66CAF01A555F85E
:10179C0023F000BF5F1600086F160008F116000852
:1017AC00031700087116000871160008711600085E
:1017BC0071160008711600087116000871160008E1
:1017CC0071160008711600087116000871160008D1
:1017DC007116000871160008EB160008F7160008C1
:1017EC00012394E7022392E7114A936823EA0E033C
:1017FC0093609BE70E4AD36823EA0E03D3609EE7FF
:10180C000B4A536823EA0E035360A1E7084A136896
:10181C0023EA0E031360A4E702B070BD000022108F
:10182C00000031100010024000000140000801408F
:10183C00000401400AB1016170470904016170475D
:10184C00002808DB0901C9B200F1604000F56140D5
:10185C0080F80013704700F00F000901C9B2014B6A
:10186C001954704714ED00E000B500F00700C0F10A
:10187C00070CBCF1040F28BF4FF0040C031D062B02
:10188C000FD9C31E4FF0FF3E0EFA0CF021EA0001F7
:10189C0099400EFA03FE22EA0E0241EA02005DF8BC
:1018AC0004FB0023EEE70000074AD36823F4E0634F
:1018BC001B041B0C000200F4E060034343F0BF6305
:1018CC0043F40033D360704700ED00E010B50446DC
:1018DC00054BD868C0F30220FFF7C6FF014620462F
:1018EC00FFF7AEFF10BD00BF00ED00E00138B0F116
:1018FC00807F0BD24FF0E0235861054AF02182F82B
:10190C0023100020986107221A617047012070474C
:10191C0000ED00E0026802F10C0353E8003F23F4F1
:10192C0090730C3242E800310029F3D1026802F1C5
:10193C00140353E8003F23F00103143242E8003152
:10194C000029F3D1036B012B05D0202380F8423002
:10195C00002303637047026802F10C0353E8003F55
:10196C0023F010030C3242E800310029F3D1ECE7EC
:10197C0010B504460268136923F44053C1680B4345
:10198C00136183680269134342691A430168CB6887
:10199C0023F4B05323F00C031343CB600268536958
:1019AC0023F4407381690B4353610268134B9A42D1
:1019BC0020D0FFF711FE024602EB820202EB8202FC
:1019CC0063689B00B2FBF3F20D48A0FB023149099E
:1019DC00642303FB11231B013233A0FB03035B09BC
:1019EC0003F0F00202EB011203F00F032168134421
:1019FC008B6010BDFFF700FE0246DDE700380140AA
:101A0C001F85EB512DE9F04383B005460E46174672
:101A1C009946DDF828802B681C6836EA04040CBF54
:101A2C0001240024BC4228D1B8F1FF3FF3D0FFF7CA
:101A3C00C9FAA0EB0900404523D8B8F1000F22D019
:101A4C002B68DA6812F0040FE5D0802EE3D0402E1C
:101A5C00E1D01A6812F0080FDDD0002401941A6846
:101A6C0001925B680193019B2846FFF753FF082303
:101A7C006B6485F84040012000E0002003B0BDE815
:101A8C00F0830320FAE70320F8E760B310B50446AF
:101A9C0090F8413013B3242384F841302268D36882
:101AAC0023F40053D3602046FFF762FF22681369CA
:101ABC0023F4904313612268536923F02A03536182
:101ACC002268D36843F40053D36000206064202361
:101ADC0084F8413084F84230606310BD80F84030A7
:101AEC00FFF742F9D7E7012070472DE9F04182B0AA
:101AFC001E4690F84130DBB2202B56D104460D46E1
:101B0C009046002955D00AB901204FE000234364C8
:101B1C00212380F84130FFF755FA0746A4F82480BA
:101B2C00A4F82680A368B3F5805F02D04FF00008BC
:101B3C0014E023692BB34FF000080FE0202384F846
:101B4C004130032032E038F8023B2268C3F308032B
:101B5C005360E28C92B2013A92B2E284E38C9BB273
:101B6C0093B100963B46002280212046FFF74AFFA6
:101B7C000028E3D1002DE6D015F8012B23685A601C
:101B8C00E7E7A8460025E9E700963B4600224021FE
:101B9C002046FFF737FF18B9202384F8413005E0C1
:101BAC00202384F84130032000E0022002B0BDE87D
:101BBC00F0810120FAE7704710B503460C4A0D4935
:101BCC000D48006840B10C4800680344521A934217
:101BDC0006D8094A136010BD0748084C0460F2E7A8
:101BEC00FEF774FD0C2303604FF0FF30F3E700BFEA
:101BFC0000500020000400001802002020020020E9
:101C0C0070B50C461646002506E0AFF30080214661
:101C1C0001F8010B01350C46B542F6DB304670BDC0
:101C2C0070B50C461646002504E014F8010BFFF7BE
:101C3C008BF80135B542F8DB304670BD4FF0FF3004
:101C4C0070474FF400534B600020704701207047E1
:101C5C0000207047FFF7AFFF0B480C490C4A0023DC
:101C6C0002E0D458C4500433C4188C42F9D3094A46
:101C7C00094C002301E013600432A242FBD3FEF7AF
:101C8C0083FAFFF7E1F8704700000020680000209D
:101C9C000C1D0008680000201C020020FEE700005C
:101CAC00F8B500BFF8BC08BC9E467047F8B500BF3D
:081CBC00F8BC08BC9E4670470D
:101CC400656E746572206D61696E207468726561F9
:101CD400640000000102000002030405060708096D
:101CE4000A0B0C0D0E0F101000000000010203047B
:101CF40000000000000000000102030406070809B8
:041D0400750100085D
:041D08004D01000881
:101D0C0000000000030000008400002010000020F0
:101D1C000000000084000020EC0000205401002092
:101D2C0000000000000000000000000000000000A7
:101D3C000000000000000000000000000000000097
:101D4C000000000000000000000000000000000087
:101D5C000000000000000000000000000100000076
:081D6C001000000000127A00D3
:0400000508001C6172
:00000001FF
