:020000040800F2
:1000000000500020990100089501000895010008A2
:100010009501000895010008950100080000000006
:100020000000000000000000000000009501000832
:100030009501000800000000950100085301000828
:100040009501000895010008950100089501000838
:100050009501000895010008950100089501000828
:100060009501000895010008950100089501000818
:100070009501000895010008950100089501000808
:1000800095010008950100089501000895010008F8
:1000900095010008950100089501000895010008E8
:1000A00095010008950100089501000895010008D8
:1000B00095010008950100089501000895010008C8
:1000C00095010008950100089501000895010008B8
:1000D00095010008950100089501000895010008A8
:0C00E0009501000895010008950100083A
:1000EC00014B1A685B68704700100240084A93691C
:1000FC0043F010039361A2F58032536823F470032C
:10010C0043F400135360D36843F40053D360704737
:10011C000010024013E04FF0E02341F63F715961AB
:10012C0000219961052119614FF0E0231B6913F43B
:10013C00803FF9D04FF0E023002119611046421E98
:10014C000028E8D17047024A1368013313607047E6
:10015C000800002008B5FFF7C3FFFFF7C7FF094CE5
:10016C00E36843F40053E3604FF4FA70FFF7D2FFF7
:10017C00E36823F40053E3604FF4FA70FFF7CAFF0F
:10018C00EDE700BF00100140FEE700000A480B49F4
:10019C000B4A884204DA52F8043B40F8043BF8E777
:1001AC00084809490022884202DA40F8042BFAE791
:1001BC00FFF7D0FFFEE70000000000200800002041
:0C01CC00DC0100080800002014000020E6
:0401D800BEBAFECAE3
:0801DC0078563412EFBEADDECF
:040000050800019955
:00000001FF
